:100000000C9472000C948F000C948F000C948F0051
:100010000C948F000C948F000C948F000C948F0024
:100020000C948F000C9499010C948F000C948A010D
:100030000C948F000C948F000C948F000C948F0004
:100040000C948F000C94E0020C948F000C948F00A1
:100050000C948F000C948F000C948F000C948F00E4
:100060000C948F000C948F000C948F000C948F00D4
:100070000C948F000C948F000C948F000C948F00C4
:100080000C948F000C948F000C948F000C948F00B4
:100090000C948F000C948F000C948F000C948F00A4
:1000A0000C948F000C948F000C948F000C948F0094
:1000B0000C948F000C948F000C948F000C948F0084
:1000C0000C948F000C948F000C948F000C948F0074
:1000D0000C948F000C948F000C948F000C948F0064
:1000E0000C948F0011241FBECFEFD1E2DEBFCDBF35
:1000F00012E0A0E0B2E0E2EAF6E002C005900D9264
:10010000A230B107D9F722E0A2E0B2E001C01D920F
:10011000AA31B207E1F70E9459020C944F030C94E4
:1001200000009C01EBE0F1E090819D7F90832093A3
:1001300000022130310531F4E8E0F1E0808180688F
:10014000808307C0232B29F4E8E0F1E080818F77DA
:100150008083EBE0F1E08081826080838081877F13
:100160008083089582E080930002EBE0F1E08081DB
:10017000886080830895EBE0F1E080818460808373
:100180008081806180830895EBE0F1E080818B7F46
:1001900080838081806180830895EBE0F1E080813D
:1001A000806280838081806880830895EBE0F1E045
:1001B00080818F7D8083808180688083089589B16C
:1001C000807490E0082E892F000C881F990B000C7A
:1001D000881F991F089589B1817090E0089589B1B1
:1001E000827090E095958795089589B1807190E02F
:1001F00095958795959587959595879595958795E7
:10020000089589B1887090E0959587959595879523
:1002100095958795089589B1847090E09595879517
:10022000959587950895EBE0F1E080818064808367
:100230000895EBE0F1E080818F7B808308958091C9
:100240000202823029F480E090E00E94910008953B
:100250000E94B200089580910C02811104C081E0D7
:1002600080930C0202C010920C0280910202823034
:1002700029F480E090E00E94910008950E94B2006D
:10028000089580910202823029F481E090E00E947A
:10029000910008950E94B200089580910802909103
:1002A0000902A0910A02B0910B020A96A11DB11D8C
:1002B0008093080290930902A0930A02B0930B0264
:1002C0000895092E000CAA0BBB0B80930802909393
:1002D0000902A0930A02B0930B02089580910302D1
:1002E0000895609108027091090280910A0290912C
:1002F0000B0228EE33E040E050E00E942D0364380A
:1003000073408105910518F40E94190108950E9417
:10031000130108951F920F920FB60F9211248F931D
:1003200083E0809302028F910F900FBE0F901F9079
:1003300018951F920F920FB60F9211242F933F938F
:100340004F935F936F937F938F939F93AF93BF93DD
:10035000EF93FF938091040290910502A091060211
:10036000B0910702C296A11DB11D409108025091A3
:10037000090260910A0270910B0284179507A60783
:10038000B707E8F58091080290910902A0910A024E
:10039000B0910B028093040290930502A093060291
:1003A000B093070280910002813021F078F0823012
:1003B000C9F022C080910C02813019F40E941F0103
:1003C0001EC081111CC00E942B0119C080910C021B
:1003D000811103C00E94410112C0813081F40E944A
:1003E0002B010DC080910C02811103C00E944101BC
:1003F00006C00E941F0103C082E080930002FF91AB
:10040000EF91BF91AF919F918F917F916F915F918C
:100410004F913F912F910F900FBE0F901F90189505
:100420008DB381608DBBE9E6F0E0808182608083DE
:100430008AB18E7F8AB98AB18D7F8AB98AB18F7E5F
:100440008AB98AB1877F8AB9E7E0F1E08081806468
:100450008083808180688083EAE0F1E0808184602D
:1004600080838081806280838AB180628AB9808142
:1004700081608083808182608083808180618083CD
:100480008081806880838AB180688AB98081886031
:1004900080830895109280008CE08093810081E732
:1004A00092E0909389008093880082E080936F00AF
:1004B0000895F8940E9410020E944A02789480E005
:1004C00090E00E94610180E090E00E9461010E9442
:1004D00019012FEF89E698E1215080409040E1F723
:1004E00000C000000E94D6002FEF89E698E121505D
:1004F00080409040E1F700C000000E94CD002FEF47
:1005000089E698E1215080409040E1F700C000006A
:1005100081E090E00E9491002FEF89E698E1215060
:1005200080409040E1F700C0000080E090E00E9431
:1005300091002FEF83EC99E0215080409040E1F74B
:1005400000C0000081E090E00E9491002FEF83EC5A
:1005500099E0215080409040E1F700C0000080E029
:1005600090E00E9491002FEF89E698E121508040B1
:100570009040E1F700C000000E94B2002FEF89E632
:1005800098E1215080409040E1F700C000000E94B7
:10059000BB002FEF89E698E1215080409040E1F7C1
:1005A00000C000000E94C4002FEF89E698E12150AE
:1005B00080409040E1F700C000000E94DF0083CF40
:1005C0001F920F920FB60F9211242F933F934F93C8
:1005D0005F936F937F938F939F93AF93BF93EF93AB
:1005E000FF930E944D010E946E0181110E947101D2
:1005F0000E94DF0090931202809311020E94EB0090
:1006000090931902809318020E94EF0090931002B9
:1006100080930F020E94F5009093150280931402BC
:100620000E940B0190931702809316020E94010111
:1006300090930E0280930D02FF91EF91BF91AF91C5
:100640009F918F917F916F915F914F913F912F91EA
:100650000F900FBE0F901F901895A1E21A2EAA1BA3
:10066000BB1BFD010DC0AA1FBB1FEE1FFF1FA21762
:10067000B307E407F50720F0A21BB30BE40BF50B5F
:10068000661F771F881F991F1A9469F760957095E8
:10069000809590959B01AC01BD01CF010895F89420
:0206A000FFCF8A
:0206A200020054
:00000001FF
