:100000000C9472000C948F000C948F000C948F0051
:100010000C948F000C948F000C948F000C948F0024
:100020000C948F000C9478010C948F000C94650153
:100030000C948F000C948F000C948F000C948F0004
:100040000C948F000C940B030C948F000C948F0075
:100050000C948F000C948F000C948F000C948F00E4
:100060000C948F000C948F000C948F000C948F00D4
:100070000C948F000C948F000C948F000C948F00C4
:100080000C948F000C948F000C948F000C948F00B4
:100090000C948F000C948F000C948F000C948F00A4
:1000A0000C948F000C948F000C948F000C948F0094
:1000B0000C948F000C948F000C948F000C948F0084
:1000C0000C948F000C948F000C948F000C948F0074
:1000D0000C948F000C948F000C948F000C948F0064
:1000E0000C948F0011241FBECFEFD1E2DEBFCDBF35
:1000F00012E0A0E0B2E0E8EFF6E002C005900D9259
:10010000A230B107D9F722E0A2E0B2E001C01D920F
:10011000AA31B207E1F70E9484020C947A030C948E
:1001200000009C01EBE0F1E090819D7F90832093A3
:1001300000022130310531F4E8E0F1E0808180688F
:10014000808307C0232B29F4E8E0F1E080818F77DA
:100150008083EBE0F1E08081826080838081877F13
:100160008083089582E080930002EBE0F1E08081DB
:10017000886080838081806880830895EBE0F1E06F
:1001800080818F7E80838081846080838081806194
:1001900080830895EBE0F1E080818F7E8083808111
:1001A0008B7F80838081806180830895EBE0F1E024
:1001B0008081806280838081806880830895EBE005
:1001C000F1E080818F7D80838081806880830895C5
:1001D00089B1807490E0082E892F000C881F990B3C
:1001E000000C881F991F089589B1817090E00895CF
:1001F00089B1827090E095958795089589B1807155
:1002000090E0959587959595879595958795959582
:100210008795089589B1887090E095958795959513
:10022000879595958795089589B1847090E0959507
:100230008795959587950895EBE0F1E0808180643E
:1002400080830895EBE0F1E080818F7B80830895C7
:100250008091080290910902A0910A02B0910B02CC
:100260000A96A11DB11D8093080290930902A093E4
:100270000A02B0930B020895092E000CAA0BBB0BC7
:100280008093080290930902A0930A02B0930B0294
:100290000895809103020895609108027091090207
:1002A00080910A0290910B0228EE33E040E050E08A
:1002B0000E945803643873408105910518F40E9428
:1002C000220108950E941C0108951F920F920FB6FB
:1002D0000F9211248F9380910202823019F483E0EF
:1002E000809302028F910F900FBE0F901F90189570
:1002F0001F920F920FB60F9211242F933F934F939B
:100300005F936F937F938F939F93AF93BF93EF937D
:10031000FF938091040290910502A0910602B09192
:100320000702C296A11DB11D409108025091090219
:1003300060910A0270910B0284179507A607B70710
:1003400008F088C08091080290910902A0910A02E9
:10035000B0910B028093040290930502A0930602D1
:10036000B093070280910002813029F060F1823061
:1003700009F451C06CC080910C02813061F480910D
:100380000202823029F480E090E00E94910062C075
:100390000E94B2005FC081115DC080910C0281118A
:1003A00004C081E080930C0202C010920C02809184
:1003B0000202823029F480E090E00E9491004AC05D
:1003C0000E94B20047C080910C0281110CC0809144
:1003D0000202823029F481E090E00E9491003AC04C
:1003E0000E94B20037C08130A9F580910C028111C2
:1003F00004C081E080930C0202C010920C02809134
:100400000202823029F480E090E00E94910022C034
:100410000E94B2001FC080910C0281110CC080911B
:100420000202823029F481E090E00E94910012C023
:100430000E94B2000FC080910202823029F480E055
:1004400090E00E94910006C00E94B20003C082E0CA
:1004500080930002FF91EF91BF91AF919F918F9197
:100460007F916F915F914F913F912F910F900FBEB0
:100470000F901F9018958DB381608DBBE9E6F0E079
:100480008081826080838AB18E7F8AB98AB18D7FB4
:100490008AB98AB18F7E8AB98AB1877F8AB9E7E043
:1004A000F1E0808180648083808180688083EAE0DD
:1004B000F1E08081846080838081806280838AB162
:1004C00080628AB98081816080838081826080833C
:1004D0008081806180838081806880838AB1806828
:1004E0008AB98081886080830895109280008CE0B2
:1004F0008093810081E792E0909389008093880047
:1005000082E080936F000895F8940E943B020E945D
:100510007502789480E090E00E943C0180E090E0D9
:100520000E943C010E9422012FEF89E698E12150B0
:1005300080409040E1F700C000000E94DF002FEFF4
:1005400089E698E1215080409040E1F700C000002A
:100550000E94D6002FEF89E698E12150804090401C
:10056000E1F700C0000081E090E00E9491002FEFD1
:1005700089E698E1215080409040E1F700C00000FA
:1005800080E090E00E9491002FEF83EC99E02150F1
:1005900080409040E1F700C0000081E090E00E94C0
:1005A00091002FEF83EC99E0215080409040E1F7DB
:1005B00000C0000080E090E00E9491002FEF89E6EB
:1005C00098E1215080409040E1F700C000000E9477
:1005D000B2002FEF89E698E1215080409040E1F78A
:1005E00000C000000E94BE002FEF89E698E1215074
:1005F00080409040E1F700C000000E94CA002FEF49
:1006000089E698E1215080409040E1F700C0000069
:100610000E94E80083CF1F920F920FB60F92112411
:100620002F933F934F935F936F937F938F939F93FA
:10063000AF93BF93EF93FF930E9428010E9449015B
:1006400081110E944C010E94E80090931202809355
:1006500011020E94F40090931902809318020E94E4
:10066000F8009093100280930F020E94FE00909376
:100670001502809314020E94140190931702809334
:1006800016020E940A0190930E0280930D02FF91C0
:10069000EF91BF91AF919F918F917F916F915F91FA
:1006A0004F913F912F910F900FBE0F901F90189573
:1006B000A1E21A2EAA1BBB1BFD010DC0AA1FBB1F66
:1006C000EE1FFF1FA217B307E407F50720F0A21BD8
:1006D000B30BE40BF50B661F771F881F991F1A9445
:1006E00069F760957095809590959B01AC01BD016F
:0806F000CF010895F894FFCF3B
:0206F8000200FE
:00000001FF
