:100000000C9472000C948F000C948F000C948F0051
:100010000C948F000C948F000C948F000C948F0024
:100020000C948F000C9434010C948F000C948F006E
:100030000C948F000C948F000C948F000C948F0004
:100040000C948F000C94ED010C948F000C948F0095
:100050000C948F000C948F000C948F000C948F00E4
:100060000C948F000C948F000C948F000C948F00D4
:100070000C948F000C948F000C948F000C948F00C4
:100080000C948F000C948F000C948F000C948F00B4
:100090000C948F000C948F000C948F000C948F00A4
:1000A0000C948F000C948F000C948F000C948F0094
:1000B0000C948F000C948F000C948F000C948F0084
:1000C0000C948F000C948F000C948F000C948F0074
:1000D0000C948F000C948F000C948F000C948F0064
:1000E0000C948F0011241FBECFEFD1E2DEBFCDBF35
:1000F00012E0A0E0B2E0E4E6F4E002C005900D9268
:10010000A230B107D9F722E0A2E0B2E001C01D920F
:10011000AE30B207E1F70E94E0010C9430020C947B
:1001200000009C01EBE0F1E090819D7F90832093A3
:1001300000022130310531F4E8E0F1E0808180688F
:10014000808307C0232B29F4E8E0F1E080818F77DA
:100150008083EBE0F1E08081826080838081877F13
:100160008083089582E080930002EBE0F1E08081DB
:1001700088608083089529B181E090E002C0880FF3
:10018000991F2A95E2F78670992729B102C09595A3
:1001900087952A95E2F7089589B1817090E00895D6
:1001A00089B1827090E095958795089580910202BB
:1001B000823011F0843029F480E090E00E949100B8
:1001C00008950E94B200089580910102811104C037
:1001D00081E08093010202C010920102809102022C
:1001E000823011F0843029F480E090E00E94910088
:1001F00008950E94B200089580910202823011F0A9
:10020000843029F481E090E00E94910008950E94DA
:10021000B20008958091030290910402A09105021A
:10022000B09106020A96A11DB11D8093030290931E
:100230000402A0930502B09306020895092E000C53
:10024000AA0BBB0B8093030290930402A0930502B8
:10025000B0930602089560910302709104028091A8
:1002600005029091060208951F920F920FB60F9209
:1002700011242F933F934F935F936F937F938F93AB
:100280009F93AF93BF93EF93FF93809100028130D0
:1002900021F0D8F0823089F139C08091010281309B
:1002A00019F40E94D60011C081110FC08FE99FE0A0
:1002B0000197F1F700C000000E94CC00892B19F4CF
:1002C0000E94D60002C00E94E400809101028111C8
:1002D00003C00E94FC0011C0813079F48FE99FE0D7
:1002E0000197F1F700C000000E94CC00892B19F49F
:1002F0000E94FC0002C00E94E40080910102811172
:1003000003C00E94FC0002C00E94D600FF91EF9142
:10031000BF91AF919F918F917F916F915F914F911D
:100320003F912F910F900FBE0F901F9018958DB396
:1003300081608DBBE9E6F0E08081826080838AB1D4
:100340008E7F8AB98AB18D7F8AB98AB18B7F8AB94B
:100350008AB1877F8AB9E7E0F1E080818064808399
:10036000808180688083EAE0F1E08081886080831A
:100370008081806280838AB180628AB98081816055
:10038000808380818260808380818061808380819E
:10039000806880838AB180688AB980818860808320
:1003A0000895109280008CE08093810081E792E0B4
:1003B000909389008093880082E080936F00089575
:1003C000F8940E9497010E94D101789480E090E017
:1003D0000E941E0180E090E008951F920F920FB6D8
:1003E0000F9211242F933F934F935F936F937F93BB
:1003F0008F939F93AF93BF93EF93FF930E940A0154
:100400000E942B01653F714081059105C0F0EBE032
:10041000F1E0908180E4892780830E94BB00909363
:100420000A02809309020E94CC0090930D028093EF
:100430000C020E94D0009093080280930702FF9163
:10044000EF91BF91AF919F918F917F916F915F914C
:100450004F913F912F910F900FBE0F901F901895C5
:04046000F894FFCF3E
:02046400020193
:00000001FF
