S015000053656E736F726573426F6C6F732E73726563BE
S11300000C9472000C9484000C9484000C9484006E
S11300100C9484000C9484000C9484000C9484004C
S11300200C9484000C9484000C9484000C94A6001A
S11300300C9484000C9484000C9484000C9484002C
S11300400C9484000C9484000C9484000C9484001C
S11300500C9484000C9484000C9484000C9484000C
S11300600C9484000C9484000C9484000C948400FC
S11300700C9484000C9484000C9484000C948400EC
S11300800C9484000C9484000C9484000C948400DC
S11300900C9484000C9484000C9484000C948400CC
S11300A00C9484000C9484000C9484000C948400BC
S11300B00C9484000C9484000C9484000C948400AC
S11300C00C9484000C9484000C9484000C9484009C
S11300D00C9484000C9484000C9484000C9484008C
S11300E00C94840011241FBECFEFD1E2DEBFCDBF3C
S11300F022E0A0E0B2E001C01D92A130B207E1F716
S11301000E949F000C9432010C940000CF93DF9363
S1130110CDB7DEB7F89487E091E020ECFC012083B2
S113012088E690E024E0FC0120838DE690E02FE354
S1130130FC01208378940000DF91CF910895CF9340
S1130140DF93CDB7DEB70E948600FFCF1F920F92D8
S113015000905F000F9211242F933F938F939F93EE
S1130160EF93FF93CF93DF931F92CDB7DEB78091C8
S113017000028F5F8093000286E091E0FC018081A1
S1130180809589838981882F90E081709927892BB4
S113019049F08DE690E02DE630E0F90120812E7FD4
S11301A0FC0120838981882F90E082709927892B14
S11301B049F08DE690E02DE630E0F90120812D7FB5
S11301C0FC0120838981882F90E084709927892BF2
S11301D049F08DE690E02DE630E0F90120812B7F97
S11301E0FC0120838981882F90E088709927892BCE
S11301F049F08DE690E02DE630E0F9012081277F7B
S1130200FC0120838981882F90E080719927892BB4
S113021049F08DE690E02DE630E0F90120812F7E53
S1130220FC0120838981882F90E080729927892B93
S113023049F08DE690E02DE630E0F90120812F7D34
S1130240FC01208300000F90DF91CF91FF91EF918B
S11302509F918F913F912F910F9000925F000F908B
S10B02601F901895F894FFCFDC
S9030000FC
