S0120000456C657661646F7265732E7372656308
S11300000C9472000C9484000C9484000C9476027A
S11300100C9418020C9484000C9484000C948400B6
S11300200C9484000C9484000C9484000C9484003C
S11300300C9484000C9484000C9484000C9484002C
S11300400C9484000C9484000C9484000C9484001C
S11300500C9484000C9456020C9484000C94840038
S11300600C9484000C9484000C9484000C948400FC
S11300700C9484000C9484000C9484000C948400EC
S11300800C9484000C9484000C9484000C948400DC
S11300900C9484000C9484000C9484000C948400CC
S11300A00C9484000C9484000C9484000C948400BC
S11300B00C9484000C9484000C9484000C948400AC
S11300C00C9484000C9484000C9484000C9484009C
S11300D00C9484000C9484000C9484000C9484008C
S11300E00C94840011241FBECFEFD1E2DEBFCDBF3C
S11300F022E0A0E0B2E001C01D92AA30B207E1F70D
S11301000E9493020C94A6020C940000CF93DF93F8
S1130110CDB7DEB784E490E022E0FC01208385E4DF
S113012090E023E0FC0120838EE690E022E0FC01D5
S1130130208387E490E02CE7FC01208385E390E0B2
S113014022E0FC0120830000DF91CF910895CF933A
S1130150DF93CDB7DEB787E091E027E031E0F90126
S113016020812064FC0120838AE091E02AE031E0D0
S1130170F90120812160FC0120838AE290E02AE2D7
S113018030E0F90120812F7BFC0120838BE091E09A
S11301902BE031E0F90120812E7FFC012083000057
S11301A0DF91CF910895CF93DF93CDB7DEB78AE285
S11301B090E02AE230E0F90120812062FC012083F2
S11301C08AE290E02AE230E0F90120812068FC0113
S11301D020838AE290E02AE230E0F9012081277F3F
S11301E0FC01208389E690E029E630E0F9012081D2
S11301F02068FC0120838DE390E02DE330E0F901D9
S113020020812860FC0120838CE390E02CE330E023
S1130210F90120812860FC0120838BE290E02BE22D
S113022030E0F90120812F77FC0120830000DF9169
S1130230CF910895CF93DF93CDB7DEB78AE290E0F4
S11302402AE230E0F90120812B7FFC01208389E63A
S113025090E029E630E0F90120812062FC0120834E
S11302608DE390E02DE330E0F90120812460FC016E
S113027020838CE390E02CE330E0F90120812460BA
S1130280FC0120830000DF91CF910895CF93DF9389
S1130290CDB7DEB7F8940E9486000E94A7000E94A2
S11302A0D3000E941A0178940000DF91CF91089541
S11302B0CF93DF9300D000D0CDB7DEB79C838B8380
S11302C080910002909101029A8389830000209119
S11302D000023091010289819A81281B390B8B819C
S11302E09C81281739079CF300000F900F900F9002
S11302F00F90DF91CF910895CF93DF93CDB7DEB701
S113030088E091E028E031E0F90120812064FC01DB
S113031020838BE091E02BE031E0F9012081216022
S1130320FC01208380ED97E00E9458018BE091E06E
S11303302BE031E0F90120812E7FFC01208381E054
S113034090E090930702809306020000DF91CF9122
S11303500895CF93DF93CDB7DEB78BE290E02BE225
S113036030E0F90120812F7DFC0120838BE290E0B5
S11303702BE230E0F90120812068FC01208388EB26
S11303809BE00E9458018BE290E02BE230E0F901FF
S113039020812F77FC012083109209021092080219
S11303A010920302109202020000DF91CF9108958F
S11303B0CF93DF93CDB7DEB7809108029091090205
S11303C0019791F48BE290E02BE230E0F901208177
S11303D02F7DFC0120838BE290E02BE230E0F901D9
S11303E020812068FC0120830000DF91CF910895D3
S11303F0CF93DF93CDB7DEB78091080290910902C5
S1130400892B91F48BE290E02BE230E0F90120811A
S11304102062FC0120838BE290E02BE230E0F901C2
S113042020812068FC0120830000DF91CF91089592
S11304301F920F9200905F000F9211242F933F930D
S11304408F939F93EF93FF93CF93DF93CDB7DEB753
S113045089E290E0FC018081882F90E080719927E7
S1130460892B89F410920902109208028BE290E021
S11304702BE230E0F90120812F77FC0120831092D8
S113048003021092020289E290E0FC0180810000E4
S1130490DF91CF91FF91EF919F918F913F912F9198
S11304A00F9000925F000F901F9018951F920F926B
S11304B000905F000F9211248F939F93CF93DF934B
S11304C0CDB7DEB78091000290910102019690931E
S11304D00102809300020000DF91CF919F918F91E0
S11304E00F9000925F000F901F9018951F920F922B
S11304F000905F000F9211248F939F93CF93DF930B
S1130500CDB7DEB781E090E09093050280930402BA
S11305100000DF91CF919F918F910F9000925F0027
S11305200F901F901895CF93DF93CDB7DEB70E943D
S113053046010E94A9010E947C010E94F80180EDFD
S113054097E00E9458010E94D801FFCFF894FFCF92
S9030000FC
