S00F0000707275656261342E7372656362
S11300000C947C000C948E000C948E000C948E0046
S11300100C948E000C948E000C948E000C948E0024
S11300200C948E000C948E000C948E000C94ED01B4
S11300300C948E000C948E000C948E000C948E0004
S11300400C948E000C948E000C948E000C948E00F4
S11300500C948E000C94EC000C948E000C948E0086
S11300600C948E000C948E000C948E000C948E00D4
S11300700C948E000C948E000C948E000C948E00C4
S11300800C948E000C948E000C948E000C948E00B4
S11300900C948E000C948E000C948E000C948E00A4
S11300A00C948E000C948E000C948E000C948E0094
S11300B00C948E000C948E000C948E000C948E0084
S11300C00C948E000C948E000C948E000C948E0074
S11300D00C948E000C948E000C948E000C948E0064
S11300E00C948E007A0184018E019801A201AC0166
S11300F0B601C001CA01D40111241FBECFEFD1E261
S1130100DEBFCDBF22E0A0E0B2E001C01D92A2306C
S1130110B207E1F70E94D6000C947F020C94000011
S1130120CF93DF93CDB7DEB784E490E022E0FC0107
S1130130208385E490E023E0FC0120838EE690E0B8
S113014022E0FC01208387E490E02CE7FC0120837B
S11301500000DF91CF910895CF93DF93CDB7DEB741
S1130160F8940E94900087E091E020ECFC01208349
S113017088E690E024E0FC0120838DE690E02FE304
S1130180FC01208384E290E02FEFFC01208385E2D0
S113019090E02FE3FC0120838AE290E020E2FC015E
S11301A0208378940000DF91CF910895CF93DF935B
S11301B0CDB7DEB70E94AC0089E290E0FC018081FB
S11301C0882F90E080719927892BB1F78DE690E014
S11301D02FE3FC012083F0CF1F920F9200905F0069
S11301E00F9211242F933F934F935F936F937F93B9
S11301F08F939F93AF93BF93EF93FF93CF93DF932B
S1130200CDB7DEB7809100028F5F809300028091AA
S113021000028530A9F51092000285E290E025E203
S113022030E0F901308120E82327FC01208383E2B8
S113023090E0FC018081882374F4909101028DEC9C
S1130240989F812D1124869586958695882F90E018
S11302500E94550115C0909101028DEC989F812D4B
S11302601124869586958695880F282F220F220FB4
S1130270820FF92FF81B8F2F882F90E00E945501D1
S11302800000DF91CF91FF91EF91BF91AF919F91CA
S11302908F917F916F915F914F913F912F910F902B
S11302A000925F000F901F901895CF93DF9300D0BA
S11302B0CDB7DEB79A83898385E290E025E230E00A
S11302C0F90120812078FC01208389819A81092EFB
S11302D0000CAA0BBB0B40E050E029E030E0841B8B
S11302E0950B2817390708F469C08E589F4FFC01F5
S11302F00C94790285E290E025E230E0F901208156
S11303002F63FC01208363C085E290E025E230E0A6
S1130310F90120812660FC01208359C085E290E028
S113032025E230E0F90120812B65FC0120834FC0D8
S113033085E290E025E230E0F90120812F64FC01A0
S1130340208345C085E290E025E230E0F901208178
S11303502666FC0120833BC085E290E025E230E084
S1130360F90120812D66FC01208331C085E290E0F3
S113037025E230E0F90120812D67FC01208327C0AC
S113038085E290E025E230E0F90120812760FC015C
S113039020831DC085E290E025E230E0F901208150
S11303A02F67FC01208313C085E290E025E230E052
S11303B0F90120812766FC01208309C085E290E0D1
S11303C025E230E0F90120812064FC012083000053
S11303D00F900F90DF91CF9108951F920F9200908C
S11303E05F000F9211242F933F938F939F93EF936A
S11303F0FF93CF93DF931F92CDB7DEB780910102B5
S11304008F5F8093010286E091E0FC0180818095FA
S113041089838981882F90E081709927892B49F0FD
S11304208DE690E02DE630E0F90120812E7FFC017D
S113043020838981882F90E082709927892B49F045
S11304408DE690E02DE630E0F90120812D7FFC015E
S113045020838981882F90E084709927892B49F023
S11304608DE690E02DE630E0F90120812B7FFC0140
S113047020838981882F90E088709927892B49F0FF
S11304808DE690E02DE630E0F9012081277FFC0124
S113049020838981882F90E080719927892B49F0E6
S11304A08DE690E02DE630E0F90120812F7EFC01FD
S11304B020838981882F90E080729927892B49F0C5
S11304C08DE690E02DE630E0F90120812F7DFC01DE
S11304D0208300000F90DF91CF91FF91EF919F91C6
S11304E08F913F912F910F9000925F000F901F907A
S11304F01895EE0FFF1F0590F491E02D0994F894E0
S1050500FFCF27
S9030000FC
